:020000040800F2
:10000000E82F0020A1010008472E0008B7230008B0
:10001000452E000833050008853800080000000060
:100020000000000000000000000000004D3100084A
:100030003505000800000000492E00084F31000877
:10004000BB010008BB010008BB010008BB010008A0
:10005000BB010008792F0008BB0100083705000824
:10006000BB0100083D05000843050008BB0100086E
:10007000BB010008BB010008BB010008BB01000870
:10008000BB010008BB010008BB010008BB01000860
:10009000BB010008BB010008BB01000849050008BE
:1000A000BB010008BB010008BB010008BB01000840
:1000B000BB0100080000000000000000BB010008B8
:1000C000BB0100080000000000000000BB010008A8
:1000D0000000000079380008BB01000800000000A3
:1000E000BB010008F92F000800000000000000001C
:1000F0000000000000000000000000000000000000
:10010000000000000000000000000000BB0100082B
:100110000000000000000000BB010008BB01000857
:10012000BB010008BB010008BB010008BB010008BF
:10013000BB010008000000000000000000000000FB
:10014000BB010008BB010008BB010008BB0100089F
:10015000BB010008BB010008BB010008BB0100088F
:10016000C5230008B9230008BB01000800000000F7
:10017000BB010008BB0100080000000000000000F7
:10018000BB010008BB010008BB010008DFF80CD070
:1001900000F02EF900480047D9610008E82F002040
:1001A0000648804706480047FEE7FEE7FEE7FEE711
:1001B000FEE7FEE7FEE7FEE7FEE7FEE7E1310008C7
:1001C0008D0100082DE9F05F0546002092469B4610
:1001D00088460646814640241BE02846414647465D
:1001E000224600F0BDF853465A46C01A914110D33A
:1001F00011461846224600F0A4F82D1A67EB0108B4
:100200004F4622460120002100F09BF817EB000921
:100210004E41201EA4F10104DFDC484631462A4647
:10022000434600F000B830BCBDE8C09F40EA01037F
:100230009B0703D009E008C9121F08C0042AFAD29C
:1002400003E011F8013B00F8013B521EF9D2704760
:10025000D2B201E000F8012B491EFBD27047002208
:10026000F6E710B513460A4604461946FFF7F0FFB5
:10027000204610BD30B505462A460B4612F8010B44
:1002800013F8014B08B1A042F8D01CB1002802D0ED
:100290006D1CF1E7284630BD30B505460020034609
:1002A00000E05B1C934205D2EC5CC85C201A01D1D3
:1002B000002CF6D130BD000070B50F4D00B9286894
:1002C000002412E00A4602E09E4203D0521C13783A
:1002D000002BF9D1DAB2224305D02BB124B1002191
:1002E00000F8011B04E00446401C0678002EE9D10A
:1002F0002860204670BD00006401002070B50646ED
:1003000004F09EF8046805460A220021304600F0F9
:1003100037F82C6070BD30B50B4601460020202216
:10032000012409E021FA02F59D4205D303FA02F502
:10033000491B04FA02F52844151EA2F10102F1DC62
:1003400030BD202A04DB203A00FA02F10020704779
:100350009140C2F1200320FA03F319439040704703
:10036000202A04DB203A21FA02F00021704721FA0A
:1003700002F3D040C2F12002914008431946704771
:100380002DE9F04791460F4680460446002614F8B2
:10039000015B2DB100F03EF80068405DC007F6D16A
:1003A0002B2D02D02D2D18D0641E4A4639462046EA
:1003B00000F034F827B13968A14201D1C7F80080B4
:1003C00071054FF002040BD54042002803DD04F014
:1003D00037F80460A007BDE8F08746F48066E4E7DC
:1003E0000028F8DA04F02CF804606FF00040F2E71F
:1003F000064C074D06E0E06840F0010394E8070072
:1004000098471034AC42F6D3FFF7C4FEE8740108F5
:100410000875010800487047E47401082DE9F05F91
:1004200082460078002715468B460AF10104B9463A
:10043000302801D09DB113E014F8010B0127782872
:1004400003D0582801D045B10AE00DB1102D07D1D5
:100450000027102514F8010B02E0082500E00A250A
:100460000026B0460EE005FB080005FB06F101275B
:1004700001EB10461FFA80F8B6F5803F00D3B9466D
:1004800014F8010B294600F01BF80028EBDABBF149
:10049000000F05D00FB1641E00E05446CBF80040B9
:1004A000B9F1000F06D003F0CBFF02210160C81E96
:1004B00000F003B848EA0640FAE730BCBDE8C09F48
:1004C0003A2800D2303820F02002412A01D3A2F18C
:1004D0003700884201D34FF0FF30704770B58C1859
:1004E00010F8015B15F0070301D110F8013B2A1148
:1004F00006D110F8012B03E010F8016B01F8016B35
:100500005B1EF9D12B0705D40023521E0DD401F830
:10051000013BFAE710F8013BCB1A921C03E013F8F9
:10052000015B01F8015B521EF9D5A142D8D300202E
:1005300070BDFEE77047022000F0BAB8082000F056
:10054000B7B8102000F0B4B8202000F0B1B872B6EF
:10055000FEE70000024909780844C0B27047000075
:10056000A80F00200148407870470000A80F002025
:100570000148807870470000A80F002010B590F85F
:1005800025100022022905D00421C16380F824200F
:10059000012010BD01680B6823F00E030B60016899
:1005A0000B6823F001030B6090F84410046C01F019
:1005B0001C03012101FA03F3636080F8251080F821
:1005C0002420104610BD10B590F8251000240229F3
:1005D00003D00421C16301241AE001680A6822F0F3
:1005E0000E020A6001680A6822F001020A6090F8AF
:1005F0004410036C01F01C02012101FA02F25A605E
:1006000080F82510002180F82410816B01B1884703
:10061000204610BD90F825007047000070B50446D4
:1006200000F058F90546601C02D0044800780444E4
:1006300000F050F9401BA042FAD370BD1C0000200E
:1006400010B51A4C4FF0904202280CD0082814D054
:1006500010281DD020281AD12021104600F035F98D
:1006600001281FD020E00221104600F02EF90128B9
:1006700001D105F081FA022008E00821104600F0BF
:1006800024F9012801D105F0B5FA0820206010BD39
:100690001021104600F019F9012801D105F002FAE5
:1006A0001020F3E705F016FB2020EFE714040140CB
:1006B000044910B50A68024202D00860FFF7C0FF83
:1006C00010BD0000140401402DE9F04FDFF8E09167
:1006D000002301270326A9F1040B85B00F2509F19A
:1006E000040AABF1040EDBE007FA03FC12EA0C0289
:1006F0007ED00C7904F00304012C01D0022C20D10F
:10070000846800945C0006FA04F80494009C24EACF
:1007100008040094D1F80C80049C08FA04F8009CAA
:1007200048EA0408C0F80880446824EA0C0491F8F8
:1007300004C0CCF3001C0CFA03FC4CEA040CC0F817
:1007400004C00C79E443A4070DD0D0F80CC04FEAE4
:10075000430806FA08F42CEA040C8C6804FA08F43E
:1007600044EA0C04C4600C7904F00304022C19D18F
:10077000DC0800EB84040294246A4FEA437C4FEACD
:10078000DC6CCDF810C005FA0CFC24EA0C04D1F89E
:100790001080DDF810C008FA0CF848EA0408029C42
:1007A000C4F8208004684FEA430806FA08FC24EAEB
:1007B0000C0491F804C00CF0030C0CFA08FC4CEA91
:1007C000040CC0F800C04C6814F4403F67D0394CAA
:1007D000D4F860C04CF0010CC4F860C0246E23F063
:1007E000030C04F001040094334C6444029400E0D0
:1007F00055E0A4684FEA837C4FEA1C7805FA08FCB0
:1008000024EA0C04B0F1904F06D0DFF8B0C0604588
:1008100005D14FF0010C0BE04FF0000C08E0DFF8C1
:10082000A0C0604502D14FF0020C01E04FF0070C70
:100830000CFA08FC4CEA040C029CC4F808C0D9F875
:100840000040CC46D1F8048094435FEAC82800D524
:100850001443CCF80040DAF80040D446D1F80480C4
:1008600094435FEA882800D51443CCF80040DBF8B5
:100870000040DC46D1F8048094435FEA883800D514
:100880001443CCF80040DEF80040F446D1F8048070
:1008900094435FEAC83800D51443CCF800405B1C91
:1008A0000C682246DC407FF41FAF05B000F00AB8A8
:1008B000080401400010024000000140000400480C
:1008C0000008004830BCBDE8C08F0069084000D077
:1008D0000120704701488068704700001C0000201C
:1008E00090F84120202A24D190F84020012A20D0DD
:1008F000012280F84020242280F8412002681368F9
:1009000023F0010313600268136823F4805313601B
:10091000026813680B43136001680A6842F0010221
:100920000A60202180F84110002180F8401008461C
:1009300070470220704790F84120202A22D190F879
:100940004020012A1ED0012280F84020242280F875
:1009500041200268136823F00103136002681368E2
:1009600023F4706343EA0121116001680A6842F0D0
:1009700001020A60202180F84110002180F8401017
:100980000846704702207047074908B50A6E42F0D2
:1009900001020A66096E01F00101009103494A68EB
:1009A00002434A6008BD0000001002400000014000
:1009B0007047704730B403689A691968D243D40508
:1009C00009D4CC43240606D4446C44F001044464A6
:1009D0004FF48074DC6153050AD4CB431B0607D463
:1009E000436C43F00803436404684FF48063E3619D
:1009F00092050AD4C943090607D4416C41F00201AB
:100A0000416402684FF40071D161416C11F00B0F29
:100A100002D030BC01F06CBD30BC704702689169F7
:100A20001268436B002B00D01847704770470000D6
:100A300070B5040004D094F84100002510B106E020
:100A4000012070BD84F84050204600F0FBF82420BF
:100A500084F841002068016821F0010101606068AC
:100A6000216820F0706008612068816821F40041ED
:100A70008160E0680128A06830D040F4044021681B
:100A80008860E0680228206841682AD021F400616B
:100A9000416020684168144A114341602068C16880
:100AA00021F40041C160D4E904010843A16940EA8E
:100AB00001202168C860D4E9070108432168086063
:100AC0002068016841F0010101606564202084F81C
:100AD0004100256384F84250002070BD40F400407E
:100AE000CDE741F40061D3E70080000270470000C9
:100AF0002DE9FF4F81B0044690F84100DDF838B091
:100B00001F46904620287BD194F84000012877D0DA
:100B1000012084F84000FFF7DDFE06460122009028
:100B20001923D103204601F0FAFF002853D12120D8
:100B300084F84100102084F8420000256564C4F860
:100B4000248067856563608D3A49FF274FF080797F
:100B50004FF0007AFF2802D927854B4605E0608DCB
:100B6000208500045346000C10D0226898F800003D
:100B70009062606A401C6062608D401E6085208DBE
:100B8000401E2085401CC2B2009101E0002200916D
:100B90002046029901F096FF14E000BF02F027F80A
:100BA000C8B9606A216800788862606A401C606227
:100BB000608D401E6085208D401E80B22085618D35
:100BC00001B160B1608D3246002859462046E5D11A
:100BD00001F0E2FFE0B1012005B000F02FB85B4664
:100BE000002280212046009601F099FF0028F2D1D2
:100BF000608DFF2805D927853A464B460095C7E703
:100C000016E0608D2085009594F828205346BFE7B4
:100C100021682020C86121684A68074B1A404A6051
:100C200084F8410084F8425084F840500020D3E713
:100C30000220D1E70020008000E800FE30BCBDE8C3
:100C4000C08F00002DE9F0419CB00446142115A886
:100C5000FFF705FB54216846FFF701FB294920688F
:100C600088424BD18015002500900C95684600F015
:100C70002DF908B1FFF76BFC234CE06C40F001004C
:100C8000E064E06C00F001001A90E06C40F00200BB
:100C9000E064E06C4FF0120800F002001A9080202F
:100CA000CDE9150817AA0326042782E8E00015A954
:100CB0004FF09040FFF708FD1020CDE9150817AA66
:100CC00015A982E8E0001148FFF7FEFCA06D40F492
:100CD0000000A065A06D002200F400001A901146EB
:100CE000482000F07DF8482000F06CF80022114602
:100CF000492000F075F8492000F064F81CB0BDE808
:100D0000F0810000005C0040001002400004004838
:100D100070477047024881680278114481607047CB
:100D20001C00002010B50024032000F079F80F20EB
:100D300000F008F808B1012401E000F025F8204691
:100D400010BD000070B50E4E05460024307898B1F5
:100D50004FF47A71B1FBF0F00A490968B1FBF0F089
:100D600001F06AF840B9102D06D200222946501E23
:100D700000F036F8756000E00124204670BD0000E8
:100D80001C000020280000200D4808B5016E41F02D
:100D900001010166016E01F001010091816D41F0D8
:100DA00080518165806D002200F0805000901146D6
:100DB000052000F015F8BDE80840052000F002B855
:100DC00000100240002809DB00F01F0201219140C1
:100DD0004009800000F1E020C0F8001170470000D9
:100DE000F0B40E4B1B680C46C3F30223C3F1070596
:100DF000042D00D90425191D072901D2002300E084
:100E0000DB1E012606FA05F1491E214099409E404D
:100E1000761E16403143F0BC03F002BB0CED00E03F
:100E2000064900F0070208684FF6FF03184040EA41
:100E30000220034A10430860704700000CED00E0F8
:100E40000000FA051649B0F5007F0868C0F341209C
:100E500009D0022805D0086820F4C06040F4806002
:100E60000860002070470128FBD0086820F4C060AB
:100E700040F4007008600B483222006850430A4A70
:100E8000B0FBF2F0401C00E0401E4A69520501D55B
:100E90000028F9D148694005E3D5032070470000D8
:100EA000007000402800002040420F000248006807
:100EB00000F4C06070470000007000400248016804
:100EC00041F4807101607047007000402DE9F84FD7
:100ED0000446002700889C4D3E46000515D5E06B72
:100EE00060B1B0F5000F04D0B0F5400F2BD0012752
:100EF0000AE0E86840F48030E86024E00021201D2A
:100F000001F0A4FF07001ED03E462068800338D5BC
:100F1000A86D4FF00008C00009D4A86D40F08050C3
:100F2000A865A86D4FF0010800F080500090DFF830
:100F30001CA2DAF8001041F48071CAF80010FFF723
:100F4000C9FC814610E0D5F88800E16B20F4400030
:100F50000843C5F88800D8E7FFF7BCFCA0EB090000
:100F6000022801D9032704E0DAF80000C005F3D510
:100F7000EFB33E46B8F1000F03D0A86D20F08050CB
:100F8000A8652078C00707D0D5F88800216A20F02E
:100F900003000843C5F888002078800707D5D5F8F6
:100FA0008800616A20F00C000843C5F888002078AA
:100FB000800607D5D5F88800A16A20F44060084370
:100FC000C5F888002088800507D5D5F88800616BB2
:100FD00020F440200843C5F888002088400509D542
:100FE000D5F88800A16B20F44010084300E02EE003
:100FF000C5F888002078400607D5D5F88800E16A52
:1010000020F440500843C5F888002088C00507D563
:10101000D5F88800216B20F440300843C5F88800DB
:1010200020884FF0006780044FF080684ED5D5F8D7
:101030008800216C20F040600843C5F88800206CCF
:10104000B8423BD1E86840F48010E8603EE0D5F853
:10105000900010F4407014D0216D814211D0D5F869
:101060009000D5F8901020F4407041F48031C5F81C
:101070009010D5F8901021F48031C5F89010C5F883
:101080009000C00711D0FFF725FC074641F28839D0
:1010900007E000BFFFF71EFCC11B494501D903262D
:1010A00068E7D5F890008007F4D5D5F89000216D59
:1010B00020F440700843C5F890005BE7404505D137
:1010C0000121201D01F0C2FE00B106462068400348
:1010D00017D5D5F88800616C20F040600843C5F84A
:1010E0008800606CB84204D1E86840F48010E86081
:1010F00007E0404505D10121201D01F0A7FE00B108
:1011000006462088400411D5D5F88800A16C20F04F
:1011100040500843C5F88800A06CB0F1805F05D14D
:101120000221201D01F092FE00B106462088000435
:1011300006D555F8880FE16C20F080400843286000
:10114000304600F005B8000000100240007000407A
:1011500018BCBDE8E08F00002DE9F0470F46050000
:101160006BD0494E306800F00700B84209D23068B1
:1011700020F0070038433060306800F00700B842C4
:101180005BD12878414C80070AD5A868A16801F096
:10119000F001884204D9A16821F0F0010143A16067
:1011A0002878C0072CD06868032811D0022812D0F4
:1011B000216898B1490500293FDAA16821F00301AF
:1011C0000143A160FFF786FB804641F2883910E0B9
:1011D00021688901EFE721688903ECE78907EAE7DD
:1011E000FFF778FBA0EB0801494502D90320BDE8D1
:1011F000F087A068696800F00C00B0EB810FEFD1B8
:10120000287880070AD5A868A16801F0F001884213
:1012100004D2A16821F0F0010143A160306800F020
:101220000700B8420BD9306820F00700384330601F
:10123000306800F00700B84201D00120D7E72878D5
:10124000400705D5A068E96820F4E0600843A06085
:101250002878000706D5A068296920F4605040EA84
:10126000C100A06000F03EF8A168094AC1F3031173
:10127000515C01F01F01C84006490860064800683B
:10128000BDE8F047FFF75EBD0020024000100240BD
:10129000A07A000828000020200000200548064908
:1012A00000688968054AC1F30221515C01F01F0101
:1012B000C84070472800002000100240E07A000873
:1012C0000548064900688968054AC1F3C221515C96
:1012D00001F01F01C84070472800002000100240A4
:1012E000E07A000870B52549002318468A68CC6862
:1012F00012F00C0204F00306214C4FEA640509D0F9
:101300000C2A05D0042A32D0082A00D1284670BD04
:10131000012E10D10B681B0704D4D1F89430C3F30D
:10132000032302E00B68C3F30313164E56F8233071
:10133000DAB10C2AEBD1C86800F00300022818D0FB
:10134000032818D01846CA68CB68C2F30212C3F348
:1013500006234343521CB3FBF2F2C868C0F341605A
:10136000401C4000B2FBF0F070BD184670BD204636
:1013700070BD2046E7E72846E5E700000010024080
:101380000024F400B07A00082DE9F84304006FD07F
:10139000FA4DA86800F00C06E86800F00307207812
:1013A000C00664D576B10C2E01D1012F0AD0A069F8
:1013B000002828687AD040F001002860FFF78AFAF8
:1013C00080465DE02868800702D5A0690028DED04D
:1013D000216A2868000703D5286800F0F00004E0BF
:1013E000D5F89400F02202EA1010814216D908467E
:1013F00001F0C4FD00283BD1286840F008002860B7
:101400002868216A20F0F000084328606868E169D4
:1014100020F47F4040EA0120686016E0286840F030
:10142000080028602868216A20F0F000084328603E
:101430006868E16920F47F4040EA0120686026B9CD
:10144000206A01F09BFD0028D5D1FFF74BFFA9686A
:10145000CB4AC1F30311515C01F01F01C840C949D7
:101460000860C9480068FFF76DFC00287ED12EE0B7
:10147000CAE000BFFFF72EFAA0EB0800022876D8DA
:1014800028688007F6D5286840F00800286028689A
:10149000216A20F0F000084328606868E16920F4C0
:1014A0007F4040EA0120686011E0FFE720F0010082
:1014B0002860FFF70FFA804606E000BFFFF70AFA40
:1014C000A0EB08000228DAD828688007F6D4207834
:1014D000C00740D0082E18D00C2E01D1032F14D0F5
:1014E0006068B0F5803F17D0B0F5A02F286817D0FE
:1014F00020F480302860286820F48020286060680C
:10150000E0B1FFF7E7F9804614E02868800322D5B0
:101510006068002878D01EE0286840F48030EDE74D
:1015200040F480202860F7E7FFF7D4F9A0EB08002B
:101530006428A4D828688003F6D50CE0FFF7CAF920
:10154000804605E0FFF7C6F9A0EB0800642896D8AE
:1015500028688003F6D4207880073BD5042E11D06C
:101560000C2E01D1022F0DD0E06801E0AAE1FFE0CE
:10157000002828681ED040F480702860FFF7AAF980
:1015800007460CE0286840050CD5E0680028C1D06B
:1015900008E000BFFFF79EF9C01B022893D8286817
:1015A0004005F7D56868217C20F0F85040EA0160DA
:1015B00068600FE020F480702860FFF78BF9074621
:1015C00005E000BFFFF786F9C01B0228B1D82868E4
:1015D0004005F7D42078000729D560690028D5F8A0
:1015E000940012D040F00100C5F89400FFF772F9A2
:1015F000074604E0FFF76EF9C01B022899D8D5F81A
:1016000094008007F6D512E02BE120F00100C5F828
:101610009400FFF75FF9074605E000BFFFF75AF9AE
:10162000C01B022885D8D5F894008007F6D420780E
:10163000400766D5A86D0027C00008D4A86D40F00B
:101640008050A865A86D012700F0805000904F4899
:101650000168C90512D40168814641F480710160B6
:10166000FFF738F9804605E0FFF734F9A0EB0800F2
:1016700002287DD8D9F80000C005F5D5A06801285A
:1016800016D00528D5F8900017D020F00100C5F835
:101690009000D5F8900020F0040000BFC5F890003D
:1016A000A06841F28839C0B1FFF714F980460FE015
:1016B000D5F8900040F00100F0E740F00400C5F8D4
:1016C0009000F5E7FFF706F9A0EB080149454FD870
:1016D000D5F890008007F5D50EE0FFF7FBF88046BF
:1016E00006E000BFFFF7F6F8A0EB080149453FD838
:1016F000D5F890008007F5D41FB1A86D20F0805078
:10170000A8652078800628D5606A0028D5F898005A
:1017100012D040F00100C5F89800FFF7DBF807464B
:1017200005E000BFFFF7D6F8C01B022820D8D5F887
:1017300098008007F6D510E020F00100C5F8980069
:10174000FFF7C8F8074604E0FFF7C4F8C01B0228FB
:101750000ED8D5F898008007F6D4A06AF0B3022816
:1017600016D00C2E7DD0286820F08070286000E014
:10177000A7E0FFF7AFF80446A6E000000010024023
:10178000A07A0008280000202000002000700040FF
:10179000E868E26A00F00301914228D1216B00F071
:1017A000700209011039914221D1626B00F4FE41AF
:1017B000B1EB022F1BD194F8382000F07841B1EB47
:1017C000C26F14D1A18F00F4C00249084905A1F5E8
:1017D000001191420BD194F8401000E06AE04908F2
:1017E000490600F0C060A1F1007181424BD00C2E7F
:1017F00073D02868400170D4286820F08070286079
:10180000FFF768F8064604E0FFF764F8801B02283B
:1018100057D828688001F7D4F4E90B016FF00F0264
:1018200002EB01110843218A5204490802EB41519D
:10183000A26841EA02210843217D4FF07E42490817
:1018400002EB41610843217B40EAC160E968244A18
:1018500011400843E860286840F080702860E8681C
:1018600000E03AE040F08070E860FFF733F80446AB
:1018700005E000BFFFF72EF8001B022821D82868DA
:101880008001F7D527E02868800124D4286840F03B
:1018900080702860E86840F08070E860FFF71AF810
:1018A000044604E0FFF716F8001B022809D8286850
:1018B0008001F7D50FE000BFFFF70CF8001B0228EE
:1018C00002D90320BDE8F88328688001F4D4E868D1
:1018D00004490840E8600020F4E70120F2E7000036
:1018E0008C809D01FCFFEEFE7047000010B501F0FA
:1018F000EFFB01F009FC0348417881F001014170E0
:1019000010BD00005E01002010B5144904464FF4DC
:101910008020086020688168C9040BD5C168C905AA
:1019200008D5C16801F0800161F4C071C160204632
:10193000FFF7DCFF2068816889040BD5C168890541
:1019400008D5C16801F0800161F42071C1602046B2
:10195000FFF7CAFF012084F8210010BD14040140E4
:1019600010B500680B4641680D480140080CD8705E
:10197000C1F304245C7001F03F049C70C1F3423158
:10198000197052B901F03EFBD870587801F03AFB5B
:101990005870987801F036FB9870002010BD000058
:1019A0003FFFFF0010B50B460168896A5960016866
:1019B0000969C1F30E019960006801680D48014092
:1019C000C1F305401870C1F306245C7001F07F0478
:1019D0009C70890DD97052B901F014FB18705878B9
:1019E00001F010FB5870987801F00CFB9870002003
:1019F00010BD00007F7F7F0010B504004FF0010094
:101A000048D094F8210028B9002084F8200020460E
:101A100000F04AF8022084F821002068C168C94318
:101A2000C90638D5CA214162216853204862204640
:101A300001F0FEFAB0B9206881681A4A114081604D
:101A4000216888686268A369104322691A431043B9
:101A500088602168E068086120680169228941EA9C
:101A600002410161204601F007FB00280DD12168E9
:101A7000CA6C22F00302CA646269E16941EA0201A8
:101A80002268D36C41EA0301D16422684FF0FF0160
:101A9000516202D010BD4FF000004FF0010184F8F8
:101AA000211010BDBFFF8FFF10B596B00446542122
:101AB0006846FEF7D4FB0F492068884218D14FF4DE
:101AC00000300090401214906846FFF7FFF908B10B
:101AD000FEF73DFD084850F8901F41F400410160B9
:101AE000002211462920FFF77BF92920FFF76AF928
:101AF00016B010BD00280040001002402DE9F05F34
:101B0000044690F820000B46012844D0012084F8B8
:101B10002000022084F821002068002680684FEA17
:101B20004060BAB3002800DBDE7098781978DA7864
:101B300040EA01405978090241EA8251084393F88A
:101B4000241040EA0165186A5F68054358692168F6
:101B50000543D8690743CA20486221685320486278
:101B6000986A4FF0FF08B0F5807F20684FF0030BB4
:101B70004FF47A7A81682BD021F40071816020685B
:101B8000C16801F0800161F42071C160FEF7A2FE1E
:101B9000814652E002E0022000F078B8002800DB25
:101BA000DE70187801F037FA0504587801F033FA3E
:101BB00045EA0025987801F02EFA0543D87845EAE1
:101BC000805593F8240001F026FA45EA0065BAE74B
:101BD00021F4807181602068C16801F0800161F4A6
:101BE000C071C160FEF776FE814605E0FEF772FE29
:101BF000A0EB0900504517D82068C068C007F5D091
:101C00002068C561206847642068816841F480715C
:101C100081602068816841F480511FE0FEF75AFE20
:101C2000A0EB0900504508D92168C1F8248084F848
:101C300021B084F820600320AEE72068C0688007E8
:101C4000ECD520680562206887642068816841F4CB
:101C5000007181602068816841F4005181600A4808
:101C6000016841F48021016007480830016841F4AF
:101C7000802101602168C1F82480012084F82100BE
:101C800084F82060002087E70004014030BCBDE8F4
:101C9000C09F000070B5044690F820000B46012854
:101CA0001BD0012684F82060022084F82100B2B104
:101CB0009878D97840EA014558781978000240EAC6
:101CC000413005432168CA20486221685320486298
:101CD000204601F0ADF9D0B120E0022070BD587867
:101CE000C10603D500F0EF000A305870D87801F033
:101CF00092F90504587801F08EF945EA00259878A4
:101D000001F089F90543187845EA4035DAE70848D3
:101D1000054020684560204601F0AEF92268FF21A9
:101D2000516208B984F82160002184F8201070BD48
:101D30003FFFFF002DE9F041044690F82000904657
:101D40000D46012811D0012784F82070022084F864
:101D500021002168CA204862216853204862204639
:101D600001F066F9002618B129E00220BDE8F081F3
:101D70002068B8F1000F80684FEA406024D0002846
:101D800000DBEE70A8782978EA7840EA01406978AB
:101D9000090241EA82510843184908402168086055
:101DA0002068816821F480218160D5E9030108431E
:101DB00021688A6810438860204601F05DF9226836
:101DC000FF215162A0B115E0002800DBEE702878F9
:101DD00001F021F90304687801F01DF943EA0023BA
:101DE000A87801F018F90343E87843EA8050D3E774
:101DF00084F8217084F82060B8E700007F7F7F00BE
:101E000070B504460B482168C860FEF763FD0546BF
:101E10004FF47A7607E000BFFEF75CFD401BB0424E
:101E200001D9032070BD2068C0688006F4D5002069
:101E300070BD00005FFF030010B5401EB0F1807F51
:101E400001D3012010BD4FF0E02460610F21601725
:101E500002F0E6FA0020A06107202061002010BDFA
:101E60007047704770470146C06FD1F88010084333
:101E7000704700002DE9F04102680446D0691168FE
:101E8000936840F60F0528424FF000054FF0020618
:101E900005D187067ED58F067CD5A16E33E1DFF8AC
:101EA00094C203F0010701EA0C0C57EA0C0C71D044
:101EB0005FEAC07C0CD05FEAC15C09D54FF0010C31
:101EC000C2F820C0D4F8842042F00102C4F8842073
:101ED000820709D5DA0707D022681662D4F8842071
:101EE00042F00402C4F8842042070AD5DA0708D079
:101EF000236804221A62D4F8842042F00202C4F853
:101F0000842002070CD501F020023A4308D0236850
:101F100008221A62D4F8842042F00802C4F884200F
:101F200002050BD54A0109D523684FF400621A62F5
:101F3000D4F8842042F02002C4F88420D4F884200D
:101F4000002A36D0800605D5880603D5A16E09B1D2
:101F500020468847D4F8840021688968490602D45D
:101F600010F0280F27D0204601F004FA206880687E
:101F700040061BD52068083050E8001F21F04001C2
:101F800040E80012002AF5D1606F78B16A49816398
:101F9000606F00E015E0FEF716FB002809D0606FC7
:101FA000816B00E02046BDE8F04108472046FFF77E
:101FB00059FFBDE8F0812046FFF754FFC4F8845074
:101FC000F7E7D4F860C02027BCF1010F7ED15FEAAB
:101FD000C06C7BD55FEAC16C78D510201062206898
:101FE000806840064FD5616F0A6850680004000C95
:101FF0003DD0B4F85830834239D9A4F85A00086863
:10200000006880062BD4206850E8001F21F48071FE
:1020100040E80012002AF6D12068083050E8001F7E
:1020200021F0010140E80012002AF5D120680830B3
:1020300050E8001F21F0400140E80012002AF5D1CD
:10204000C4F880702566206850E8001F21F0100158
:1020500040E80012002AF6D1606FFEF78FFA66663C
:10206000B4F85800B4F85A10401A81B207E0B4F836
:10207000581081429DD1106880069AD56666204628
:10208000FFF7EEFE95E7B4F85800B4F85A10401A7E
:1020900081B2B4F85A0000288BD0002989D0226878
:1020A00052E8000F20F4907042E80003002BF6D1B4
:1020B0002068083050E8002F22F0010240E8002399
:1020C000002BF5D1C4F88070256600E00AE0A56613
:1020D000226852E8000F20F0100042E80003002BB5
:1020E000F6D1CBE7C60209D55B0207D54FF48010C5
:1020F00010622046BDE8F041FFF7B3BE020606D5E8
:102100000A0604D5E16E00297FF44CAF51E7400682
:10211000B8D54806B6D52046026852E8001F21F01F
:10212000400142E80013002BF6D1C767C56600F0F6
:1021300041F93EE7200100046133000810B50400B6
:1021400002D0E06F10B107E0012010BD002084F83C
:102150007800204600F026F82420E0672068016817
:1021600021F001010160606A10B1204601F040F8E1
:10217000204601F0EDF90128E7D02068416821F4FC
:10218000904141602068816821F02A0181602068C7
:10219000016841F0010101602046BDE8104001F0F6
:1021A0008BB8000010B59CB00446142115A8FEF7AA
:1021B00056F854216846FEF752F81C4920688842B8
:1021C00031D101200024009008946846FEF77EFE7D
:1021D00008B1FEF7BCF91648016E41F48041016672
:1021E000016E01F480411A91C16C41F00101C1649A
:1021F000C06C15A900F001001A904FF4C060159052
:102200000220CDE9160403201890072019904FF002
:102210009040FEF759FA002211462520FEF7E0FD16
:102220002520FEF7CFFD1CB010BD00000038014096
:102230000010024030B4D0F88030202B02D00220B1
:1022400030BC7047A9B1A2B1002303660A4C0368F1
:10225000A3420BD05B681B0208D5046854E8003F1A
:1022600043F0806344E80035002DF6D130BC01F026
:102270005DBA0120E4E70000008000402DE9F04154
:1022800000681E49884231D11D4840F2FB72002689
:102290004189914205D34681511D1A48FDF7DFFF60
:1022A00024E0184C037863544278EAB982788D1A96
:1022B000655D3C2D18D1521CD2B282703E2B01D0EC
:1022C0000E2A11D300258A1A0F4F4B1C06E000BFBF
:1022D00014F802C007F805C06D1CEDB2521C9A42FA
:1022E000F6DB012242708670491C4181BDE8F04155
:1022F000012203490548FFF79DBF00000038014057
:10230000000000207401002074090020FC09002056
:102310002DE9F8430446C06F984616460D4620281E
:1023200002D00220BDE8F88395B18EB10020C4F838
:1023300084002120E067FEF7CDFAA4F850608146C2
:10234000A4F85260A0682027B0F5805F02D003E0B7
:102350000120E7E7206910B12E46002510E0002695
:102360000EE08021204601F03DFAC0B9D6B116F842
:10237000010B21680885B4F85200401EA4F85200F1
:10238000B4F852004B464FF00002CDF80080002810
:10239000E7D14FF04001204601F024FA38B1E76759
:1023A0000320BFE735F8020BC0F30800E1E7E76759
:1023B0000020B7E77047FEE70148FEF7FBBA0000D0
:1023C000840900200148FEF729BB00008409002091
:1023D000806A0021826B02B19163C26B02B191638A
:1023E00000F088BB10B50022CC074FF0280306D0C0
:1023F00090F84140422233EA040400D0F2228C07D4
:1024000007D590F8414042F04402A34301D042F086
:10241000B0020B0401D542F0B802102904D02029E3
:1024200005D0402906D007E042F0900204E042F0D7
:10243000200201E042F0400200680168914301601F
:1024400010BD01688A69D243920701D400228A62D2
:1024500000688169C943C90703D0816941F001015E
:10246000816170472DE9F041044690F84100282130
:10247000814320684FF000054FF0080304D0C3618A
:1024800084F84050BDE8F0818169C1F3004781695B
:10249000FE2202EA11468168C1F30902C168D4F83C
:1024A0000CE001F0FE014FF4004CBEF1020F17D119
:1024B0004FF0060E06F006060EEAD21E76450ED145
:1024C000A16C491CA164A16C0229DBD1A564C36184
:1024D00084F8405039462046FEF76BFAD2E70E46A4
:1024E00061462046FFF77EFF84F840503246F1E710
:1024F00070B5044690F84100002584F84250404AE7
:10250000E2626585626C0A436264282833D0292818
:1025100031D02A282FD048F203012046FFF762FF6E
:102520002046FFF78EFF94F84100602813D0202149
:1025300084F8411020688269D24392060BD48269E4
:10254000D243D20605D41022C261606C40F0040070
:1025500060642068C1616563206B2A4EA16B19B16C
:10256000112812D0212810D0E16BE9B3122824D011
:10257000222822D03EE003212046FFF733FF282007
:1025800084F8410020486063E6E720680168490458
:1025900003D5016821F480410160A06BFEF73AF891
:1025A000012827D0A06B866384F84050A06BFEF70B
:1025B0000AF8002823D0A06B18E0206801680904FD
:1025C00003D5016821F400410160E06BFEF722F8B9
:1025D00001280FD0E06B866384F84050E06BFDF774
:1025E000F2FF00280BD000E004E0E06B816BBDE857
:1025F000704008472046BDE8704000F07BBA70BDCF
:102600000000FFFFD1230008AD29000870B5044683
:102610001648E06200252563202084F8410084F8F4
:102620004250C8436563400711D42068406A616A1C
:102630000870606A401C6062208D40B1401E208599
:10264000608D401E6085606C40F00400606448F25C
:1026500003012046FFF7C6FE21681020C86184F8F8
:1026600040502046FEF742FA70BD00000000FFFF18
:102670002DE9F04702680446D2F80080C56A0E468C
:1026800090F841002027D7614FF00009212808D099
:10269000292806D022280BD02A2809D028280ED095
:1026A00014E048F201012046FFF79CFE21200CE0D7
:1026B00048F202012046FFF795FE222005E048F28D
:1026C00003012046FFF78EFE4846206320684168DC
:1026D00041F40041416020684168524A1140416024
:1026E0002046FFF7AEFE6FEA0801480406D42068D2
:1026F000026822F480420260A06B07E0080409D45B
:102700002068026822F400420260E06B10B10068A9
:1027100040686085F04340070FD4206826F0040627
:10272000406A626A1070606A401C6062208D20B14D
:10273000401E2085608D401E6085608D18B1606CE4
:1027400040F004006064F043DFF8DC80C00632D45F
:10275000C80630D4618D102051B12168C861606C09
:1027600040F00400606415B3B5F1807F1FD022E013
:1027700094F84110282902D1B5F1007F04D094F8D3
:102780004110292905D00FE031462046FFF73EFFD2
:1027900011E0454508D02168C8612046FFF751FE89
:1027A000204600F043F806E02168C86103E0616C50
:1027B0002046FFF79DFE4D4684F84290C4F83490C1
:1027C000606C68B1616C2046FFF792FE94F841009E
:1027D000282815D131462046BDE8F047FFF716BF3F
:1027E000E06A4646B0420DD0204600F01FF8E6628F
:1027F00084F84170256384F840502046FEF776F94E
:10280000BDE8F08794F8410084F8417022282563E0
:1028100084F84050204602D0FEF77BFAF0E7FEF73E
:1028200077FAEDE700E800FE0000FFFF70B5044610
:1028300000680168002584F84250C9434A0403D463
:10284000016821F4804104E0090403D4016821F403
:102850000041016094F841102820292911D094F8F2
:1028600041102A290CD184F8410022202063022142
:102870002046FFF7B7FD84F840502046FEF748FA9F
:1028800070BD84F841002120206301212046FFF71C
:10289000A9FD84F840502046FEF73BFA70BD0000C9
:1028A0002DE9F047044600688946002681693546CF
:1028B0001746C9064FF0200841D51021C1612FE00D
:1028C000B9F1FF3F2CD0FEF705F8C11B494502D8EE
:1028D000B9F1000F24D12068416894F8422001F436
:1028E00080418369DB431B0415D4B1F5804F12D0BE
:1028F000202A10D0416841F480414160FDF7EAFF91
:10290000074608E0FDF7E6FFC01B192803D945F08C
:102910002005012604E020688069C0438006F1D4C8
:1029200020688069C043800602D5002EC8D003E02D
:1029300016B92168C1F81C8045F0040501262168FC
:102940008869C20505D54FF4807245F00105CA615A
:102950000126410509D522684FF4806145F008053C
:10296000D1610126800502D40AE0800507D52168DF
:102970004FF4007045F00205C861012600E086B101
:102980002046FFF75EFD54F8240B4168064A1140CB
:102990004160206A2843206284F81D800020A077CF
:1029A00020773046BDE8F08700E800FE2DE9F041D1
:1029B0000446C06A94F84030012B0DD0012384F8FE
:1029C0004030CB439D066FEA020208D4950606D438
:1029D0002046FFF74DFE6FE00220BDE8F081384D44
:1029E000DF064FF080762DD4D7062BD4638D1022CE
:1029F0006BB12168CA61616C41F00401616408B186
:102A0000B04259D1616C2046FFF772FD54E094F852
:102A10004130282B02D1B0F1007F04D094F841104E
:102A2000292904D00BE02046FFF7F0FD44E0A8423E
:102A300005D02068C2612046FFF703FD39E0206819
:102A4000C26139E05F0715D4570713D4618D61B1B6
:102A50002168496A626A1170616A491C6162218D4C
:102A6000491E2185618D491E6185618D21BBA8426A
:102A70001FD121E01D0705D4150703D42046FFF719
:102A8000F1FC19E0990717D4910715D4618D69B14C
:102A9000606A216800788862606A401C6062608DAC
:102AA000401E6085208D401E208505E0B04200D08C
:102AB00010B92046FFF7BAFE002084F840008CE7EA
:102AC0000000FFFF10B5C1F3090141EA02410268AD
:102AD000029C19432143506821F000414FF4806368
:102AE00003EA5453024C234398430843506010BDFB
:102AF000FF63FF0310B590F841200021602A05D044
:102B0000016380F84010FDF791FF10BD202280F88E
:102B10004120016380F84010FDF74AFF10BD2DE908
:102B2000F0411D4617460E460446DDF8188027E0A2
:102B3000424629462046FFF7B3FE10B10120BDE80A
:102B4000F081681C1CD0FDF7C5FEA0EB0800A84270
:102B500000D8ADB92068806936EA00000ED00020A8
:102B6000B8420DD154F8440F40F0200044F8040955
:102B7000202060700020A0702070DFE70120EFE7C8
:102B80002068806936EA000004D00020B842CFD027
:102B90000020D4E70120F9E770B516460D4604463B
:102BA0001EE0324629462046FFF77AFE08B1012092
:102BB00070BDFDF78FFE801BA84200D885B9206844
:102BC0008069C04380060BD554F8440F40F02000C4
:102BD00044F80409202060700020A0702070E6E70F
:102BE00020688069C0438006DBD4002070BD70B5CA
:102BF00016460D46044620E0324629462046FFF799
:102C00004FFE08B1012070BD681C16D0FDF762FEB2
:102C1000801BA84200D885B920688069C04380071E
:102C20000BD554F8440F40F0200044F8040920204C
:102C300060700020A0702070E4E720688069C043C5
:102C40008007D9D4002070BD00B587B01421684634
:102C5000FDF705FB2348C16C41F00401C164C16C60
:102C600001F004010591C16C41F00101C164C16C26
:102C700001F001010591C16C41F00201C164C06C19
:102C8000694600F0020005903A2000904FF4881049
:102C90000190022002904FF09040FDF715FD0022B8
:102CA00001210720FEF79CF80720FEF78BF8002291
:102CB00001210920FEF794F80920FEF783F800228D
:102CC00001210A20FEF78CF80A20FEF77BF800228B
:102CD00001211720FEF784F81720FEF773F807B0DC
:102CE00000BD000000100240144810B512490160F8
:102CF0001349416000210122C0E9021201614161D2
:102D00008161C1610162FDF793FE08B1FDF71FFC0F
:102D100000210A48FDF7E4FD08B1FDF718FC002189
:102D20000648FDF708FE08B1FDF711FCBDE81040AC
:102D30004FF48000FDF728BE005C004084090020AD
:102D4000240EB10030B591B014210BA8FDF787FA1D
:102D500000242C2168461094FDF781FA2848274961
:102D6000C0E900147F218160FF21C0E903144461A0
:102D70008461C461FEF740FE08B1FDF7E8FB8DF801
:102D80002C408DF82D408DF82E400E9400220BA97A
:102D90001B480F94FEF7CEFF08B1FDF7D8FB0125C5
:102DA0008DF840508DF841508DF842508DF84340D9
:102DB000002210A91248FEF76DFF08B1FDF7C7FB0E
:102DC0008DF800408DF8014005208DF802000D4877
:102DD0000394CDE904404FF480700A900194079465
:102DE00008948DF82450002269460548FEF786FEB7
:102DF000002801D0FDF7ABFB11B030BD002800402A
:102E0000D8090020008080800D4810B50B49016072
:102E10004FF4E1314160002181600C22C160C0E9C2
:102E200004128161C16101624162FFF787F90028E4
:102E300003D0BDE81040FDF78ABB10BD003801404B
:102E4000FC090020FEE7FEE7704700002DE9F04195
:102E5000444C05468846E0680026810728680DD066
:102E6000E16801F00301814216D1A8B1E068696808
:102E7000C0F30210401C88420ED120E0012804D08B
:102E8000022805D0032807D108E02168890701E05E
:102E900021684905002907DB01265FE021688903D5
:102EA00002D421684903F5E7E1686A686FF00F030F
:102EB00021F0730103EB021211430143E16020682A
:102EC00020F080602060FDF705FD074605E000BFAB
:102ED000FDF700FDC01B022837D820680001F7D499
:102EE000B8F1000F18D0B8F1010F1DD0287D4FF0B8
:102EF0007E41400801EB4060A96840EA0120216959
:102F0000194A114008432061206840F08060206029
:102F1000FDF7E0FC07461AE0A868297B000240EABA
:102F2000C1602169114AECE7288A1149400801EB88
:102F30004050A96840EA012021690E4AE1E700BF3C
:102F4000FDF7C8FCC01B022801D9032606E0206853
:102F50000001F5D52069A969084320613046BDE824
:102F6000F081000000100240FF80FFF9FF80FF07A2
:102F70000000E0FFFF809FFF70470000F8B51C4D88
:102F800006460024A86DC00002D5FDF78FFF0DE0B6
:102F9000A86D40F08050A865A86D00F080500090AA
:102FA000FDF784FFA96D21F08051A965B0F5007F80
:102FB00004D0802E07D94FF003040AE0802E08D9F0
:102FC000A02E01D804E001D1022402E0702E00D12D
:102FD00001240848016821F00701214301600068CD
:102FE00000F00700A04201D00120F8BD0020F8BD8C
:102FF00000100240002002400148FEF785BC00009E
:10300000D8090020010901EB810100F00F0000EB5D
:103010004100C0B270470022014602E00A39C9B23D
:10302000521C0A29FAD2100741EA106070470000CA
:103030002DE9F041044600680025C168490617D40F
:10304000691EC160FDF746FC06464FF47A780327F7
:1030500008E000BFFDF73EFC801B404502D9032578
:1030600084F821702068C068400601D4032DF1D196
:103070002846BDE8F08100002DE9F04106461348DE
:103080000025016821F080010160041F20684FF0D5
:103090000307800607D43046FEF7B2FE90B186F8EB
:1030A000217003250EE0206820F0200020603046CB
:1030B000FEF7A6FE10B186F821700325206840F0C7
:1030C000200020602846BDE8F08100000C28004068
:1030D00010B5002205490648FEF764FCBDE8104023
:1030E000002204490248FEF73BBC0000A80F002064
:1030F000D809002060010020014600220148FEF7A7
:1031000019BE0000D80900200D480021A0F11402CA
:103110000170417092780B4B521CD2B282704160A8
:10312000C16143610162012380F824301B02836284
:103130003C2A00D18170002201490348FEF7DEBC21
:10314000BC0F002000808080D80900207047FDF768
:10315000E1BD000000B597B044216846FDF77FF857
:10316000142111A8FDF77BF84FF40070FDF76AFEFB
:1031700008B172B6FEE7FDF7A1FE184850F8901F9F
:1031800021F0180101600620012100900802CDE91C
:1031900002101020049002200A90CDE90B010A21B0
:1031A0000D910721CDE90E1010906846FEF7ECF85E
:1031B00008B172B6FEE70F20119003201290002094
:1031C000139014901590042111A8FDF7C5FF002855
:1031D00001D072B6FEE717B000BD0000001002403B
:1031E0000248016841F470010160704788ED00E019
:1031F00090F82410090706D501684A68436B22F449
:1032000000421A434A6090F82410C90706D00168AA
:103210004A68836A22F400321A434A6090F8241004
:10322000890706D501684A68C36A22F480321A43C6
:103230004A6090F82410490706D501684A68036B74
:1032400022F480221A434A6090F82410C90606D559
:1032500001688A68836B22F480521A438A6090F86E
:103260002410890606D501688A68C36B22F40052CF
:103270001A438A6090F82410490611D501684A68FB
:10328000036C22F480121A434A60016CB1F5801F6E
:1032900006D101684A68436C22F4C0021A434A60AE
:1032A00090F82410090606D501684A68806C22F45B
:1032B000002202434A6070472DE9F8430026044685
:1032C000C0F88460FDF706FB8046206800684FF078
:1032D000200500076FF07E4712D5434600222904DF
:1032E0002046009700F07EFA50B1216851E8000FA7
:1032F00020F0800041E80002002AF6D1E56721E0D5
:1033000020680068400722D5434600224FF4800120
:103310002046009700F066FAC8B1216851E8000F16
:1033200020F4907041E80002002AF6D120680830AD
:1033300050E8001F21F0010140E80012002AF5D1F9
:10334000C4F8805084F878600320BDE8F883E5670E
:10335000C4F8805044F8606F666026760020F4E779
:1033600010B5806A0021A0F85A10A0F85210FEF79C
:1033700079FD10BD016851E8002F22F4907241E8F8
:103380000023002BF6D10168083151E8002F22F00C
:10339000010241E80023002BF5D1016E012908D17B
:1033A000026852E8001F21F0100142E80013002BD0
:1033B000F6D12021C0F88010002101668166704797
:1033C00010B5B0F85C20D0F880300168222B04D012
:1033D000088B40F00800088310BD898C436D1140B4
:1033E0001980416D891C4165B0F85A10491EA0F83A
:1033F0005A10B0F85A100029EED1016851E8002F98
:1034000022F4907241E80023002BF6D101680831C4
:1034100051E8002F22F0010241E80023002BF5D1F2
:103420002021C0F88010002181664166154B02689A
:103430009A420BD05268120208D5036853E8002F55
:1034400022F0806243E80024002CF6D1026E012AAB
:1034500002D0FEF713FF10BD0166026852E8001F9C
:1034600021F0100142E80013002BF6D10168CA696F
:10347000D243D20601D410220A62B0F85810FEF7E7
:10348000EFFC10BD0080004010B5B0F85C20D0F813
:1034900080300168222B04D0088B40F0080008839C
:1034A00010BD898C1140426D1170416D491C416500
:1034B000B0F85A10491EA0F85A10B0F85A10002956
:1034C000EED1026852E8001F21F4907142E8001327
:1034D000002BF6D10168083151E8002F22F00102DB
:1034E00041E80023002BF5D12021C0F880100021F5
:1034F00081664166154B02689A420BD052681202EF
:1035000008D5036853E8002F22F0806243E80024C6
:10351000002CF6D1026E012A02D0FEF7AFFE10BDDC
:103520000166026852E8001F21F0100142E8001312
:10353000002BF6D10168CA69D243D20601D4102209
:103540000A62B0F85810FEF78BFC10BD00800040F6
:103550002DE9F0410446016880682269E66910435C
:103560006269002532431043694B0A68694E324054
:1035700002430A6020684168E26821F44051114327
:1035800041602168A069994201D0226A10438A688B
:1035900022F4306202438A605F4927685F488F42A5
:1035A0000DD1D0F8880010F0030006D0012838D0E3
:1035B000022834D0032821D135E001211FE05849E9
:1035C0008F420BD1D0F8880010F00C0025D00428D1
:1035D00027D0082823D00C2810D124E09F420DD1F9
:1035E000D0F8880010F4406017D0B0F5806F18D084
:1035F000B0F5006F13D0B0F5406F14D01021494AD8
:1036000000264FF400409F422FD171B102290FD004
:1036100004290FD0082973D10FE00021EFE7022120
:10362000EDE70421EBE70821E9E7FDF737FE03E0CA
:10363000104602E0FDF756FEF0B3626802EB42016D
:1036400081425DD8B0EB023F5AD8010E0302500808
:10365000181871410023FCF7B5FD334AA0F54071FD
:1036600091424DD82168C8604BE0E3694FF6EF778F
:10367000834228D1092943D2DFE801F005080B4233
:103680000D4242421000FDF709FE06E0FDF718FE6C
:1036900003E0104602E0FDF725FE68B141006068D6
:1036A00001EB5001B1FBF0F0A0F11001B94227D8B5
:1036B0004FF6F071014000E023E0C0F34200014307
:1036C0002068C1601DE009291AD2DFE801F0050871
:1036D0000B190D1919191000FDF7E0FD06E0FDF7B3
:1036E000EFFD03E0104602E0FDF7FCFD48B1616824
:1036F00000EB5100B0FBF1F0A0F11001B94205D987
:103700000125A6662846E666BDE8F08180B2A9E7F5
:1037100000800040F369FFEF0038014000100240D4
:10372000004400400024F400FFFC0F0030B5416568
:10373000A0F85820A0F85A200022826681684FF431
:103740008055FF23A94204D1016969BB40F2FF11F2
:1037500030E07F2431B3B1F1805F28D0A0F85C2045
:10376000C0F884202221C0F880100168083151E897
:10377000002F42F0010241E80023002BF5D18168BF
:10378000A94201D10169D9B1144981660169C9B160
:10379000016851E8002F42F4907241E80023002BA9
:1037A000F6D118E0016941B9A0F85C30D8E70169A9
:1037B00019B13F21A0F85C10D2E7A0F85C40CFE738
:1037C00007498166026852E8001F41F0200142E883
:1037D0000013002BF6D1002030BD00008934000812
:1037E000C13300082DE9F047994617460D460446B7
:1037F0004FF00008089E33E0701C31D0FDF76AF8E6
:10380000A0EB0900B04218D8BEB120680168490792
:1038100026D5802D24D0402D22D0C169C943090767
:103820000DD4082505622046FFF7A4FDC4F8845096
:1038300084F878800120BDE8F0870320FBE7C069A9
:10384000C04300050CD421684FF400600862204694
:10385000FFF790FD2020C4F8840084F87880ECE71E
:103860002068C06935EA000004D00020B842C3D007
:103870000020E0E70120F9E70148FEF7FBBA00006D
:10388000FC090020FEE7704702494FF0FF30C86096
:10389000704700009800002002494FF0FF30C860D8
:1038A000704700009800002002494FF0FF30C860C8
:1038B000704700009800002002494FF0FF30C860B8
:1038C0007047000098000020024800214170C1703C
:1038D00081707047980000207047000010B5FCF719
:1038E000F9FF0149886010BD980000200348017865
:1038F000034801714FF0FF31C16070475F01002044
:103900009800002003480178034801714FF0FF310F
:10391000C16070475F0100209800002003480178D3
:10392000034801714FF0FF31C16070475F01002013
:103930009800002003480178034801714FF0FF31DF
:10394000C16070475F0100209800002010B5FCF7AF
:10395000C1FF0149886010BD980000207047000039
:103960002DE9F0418CB0FCF7B5FFFF4F04463F2630
:10397000B86807F11805201AA0F2F5103B2808D204
:1039800068680022CDE900607F231146F74803F004
:103990000DF8B868201AA0F231203B2808D2A86898
:1039A0000022CDE900607F231146F04802F0FEFFBF
:1039B000B868201AA0F26D203B2808D2E8680022DF
:1039C000CDE900607F231146E84802F0EFFFB868B8
:1039D000201AA0F2A9203B2808D228690022CDE9AC
:1039E00000607F231146E14802F0E0FFB868201A2A
:1039F000A0F2E5203B2808D268690022CDE90060EA
:103A00007F231146D94802F0D1FFB868201AA0F2EE
:103A100021303B2808D2A8690022CDE900607F232D
:103A20001146D24802F0C2FFB868201AA0F25D30F9
:103A30003B2808D2E8690022CDE900607F231146C7
:103A4000CA4802F0B3FFB868201AA0F299303B28A8
:103A500008D2286A0022CDE900607F231146C348BE
:103A600002F0A4FFB868201AA0F2D5303B2808D293
:103A7000686A0022CDE900607F231146BB4802F04E
:103A800095FFB868201AA0F211403B2808D2A86A16
:103A90000022CDE900607F231146B44802F086FF82
:103AA000B868201AA0F24D403B2808D2E86A0022EC
:103AB000CDE900607F231146AC4802F077FFB8687B
:103AC000201AA0F289403B2808D2286B0022CDE9B9
:103AD00000607F231146A54802F068FFB868201AED
:103AE000A0F2C5403B2808D2686B0022CDE90060F7
:103AF0007F2311469D4802F059FFB868201AA0F2B2
:103B0000C540772808D2A86B0022CDE900607F234A
:103B10001146964802F04AFFB868201AA0F23D50BC
:103B20003B2808D2E86B0022CDE900607F231146D4
:103B30008E4802F03BFFB868201AA0F279503B286B
:103B400008D2286C0022CDE900607F231146874807
:103B500002F02CFFB868201AA0F2B5503B2808D21A
:103B6000686C0022CDE900607F2311467F4802F097
:103B70001DFFB868201AA0F2F1503B2808D2A86CAB
:103B80000022CDE900607F231146784802F00EFF45
:103B9000B868201AA0F22D603B2808D2E86C0022F9
:103BA000CDE900607F231146704802F0FFFEB8683F
:103BB000201AA0F269603B2808D2286D0022CDE9C6
:103BC00000607F231146694802F0F0FEB868201AB1
:103BD000A0F2A5603B2808D2686D0022CDE9006004
:103BE0007F231146614802F0E1FEB868201AA0F276
:103BF000E1603B2808D2A86D0022CDE900607F2358
:103C000011465A4802F0D2FEB868201AA0F21D7080
:103C10003B2808D2E86D0022CDE900607F231146E1
:103C2000524802F0C3FEB868201AA0F259703B282F
:103C300008D2286E0022CDE900607F2311464B4850
:103C400002F0B4FEB868201AA0F295703B2808D2A2
:103C5000686E0022CDE900607F231146434802F0E0
:103C6000A5FEB868201AA0F2D1703B2808D2A86E31
:103C70000022CDE900607F2311463C4802F096FE09
:103C8000B868201AA0F60D003B2808D2E86E002282
:103C9000CDE900607F231146344802F087FEB86802
:103CA000201AA0F649003B2808D2286F0022CDE94F
:103CB00000607F2311462D4802F078FEB868201A74
:103CC000A0F685003B2808D2686F0022CDE900608D
:103CD0007F231146254802F069FEB868201AA0F635
:103CE000C1003B2808D2A86F0022CDE900607F23E5
:103CF00011461E4802F05AFEB868201AA0F6FD00D0
:103D00003B2808D2E86F0022CDE900607F231146EE
:103D1000164802F04BFEB868201AA0F639103B286E
:103D200009D2D5F880000022CDE900607F2311463A
:103D30000E4802F03BFEB868201AA0F675103B282A
:103D400009D2D5F884000022CDE900607F23114616
:103D5000064802F02BFEB868201AA0F6B1103B28E6
:103D60000ED27F23002203E098000020A40A002046
:103D7000D5F888001146CDE900606F4802F016FEC4
:103D8000B868201AA0F6ED103B2809D2D5F88C00AF
:103D90000022CDE900607F231146674802F006FE4D
:103DA000B868201AA0F629203B2809D2D5F890003F
:103DB0000022CDE900607F2311465F4802F0F6FD46
:103DC000B868201AA0F665203B2809D2D5F89400DF
:103DD0000022CDE900607F231146574802F0E6FD3E
:103DE000B868201AA0F6A1203B2809D2D5F898007F
:103DF0000022CDE900607F2311464F4802F0D6FD36
:103E0000B868201AA0F6DD203B2809D2D5F89C001E
:103E10000022CDE900607F231146474802F0C6FD2D
:103E2000B868201AA0F619303B2809D2D5F8A000AE
:103E30000022CDE900607F2311463F4802F0B6FD25
:103E4000B868201AA0F655303B2809D2D5F8A4004E
:103E50000022CDE900607F231146374802F0A6FD1D
:103E6000002002900390049005900690079008901F
:103E700009900A90FFF72CF90020FCF76BFB054630
:103E8000FCF770FB8046FCF773FB0646B868201A07
:103E9000B0F5396F4DD9387898B90C2D07D90C3D4C
:103EA000EDB22649244802F039FE25A304E0234957
:103EB000214802F033FE23A33A223C211E4802F09F
:103EC0005FFD2A4620A102A800F096FA424620A1F2
:103ED00005A800F091FA32461FA108A800F08CFA5C
:103EE0001E49154802F01AFE02AB35220221124883
:103EF00002F046FD4FF4FA60B4FBF0F100FB114014
:103F000040F2E731401E884209D215490A4802F0C2
:103F100005FE14A335223821074802F031FD0F4970
:103F2000054802F0FBFD05AB35224821024802F0AE
:103F300027FD0CB0BDE8F081A40A00201823010879
:103F4000504D0000414D000025303264200000003B
:103F5000253032640000000025640000EB4A0108AF
:103F6000A66F01083A0000003EB51E48C1683C2912
:103F70000CDB1D491D4802F0D1FD03B03522BDE820
:103F800030401BA30021194802F0FABC027900233B
:103F900082F00104184A1278944201D14D1C1DD0C0
:103FA000944204D14C1C18D0491CC16002710846CF
:103FB000491C12D0C0F13C02009301930FA1684646
:103FC000029300F019FA0F49084802F0A7FD6B466A
:103FD00035223821054802F0D3FC3EBDC360027192
:103FE0003EBD000098000020BF4D0108A40A00203B
:103FF000444F4E45000000005F0100202530326430
:1040000020000000A66F01083EB51E48C16878294F
:104010000CDB1D491D4802F081FD03B03522BDE8CF
:1040200030401BA30021194802F0AABC02790023EA
:1040300082F00104184A1278944201D14D1C1DD01F
:10404000944204D14C1C18D0491CC160027108462E
:10405000491C12D0C0F17802009301930FA1684669
:10406000029300F0C9F90F49084802F057FD6B466A
:1040700035221C21054802F083FC3EBDC36002715D
:104080003EBD000098000020BF4D0108A40A00209A
:10409000444F4E45000000005F010020253033648E
:1040A00020000000A66F01083EB51E48C168B1F5AA
:1040B000967F0CDB1C491D4802F030FD03B0352211
:1040C000BDE830401AA30021184802F059BC02791B
:1040D000002382F00104184A1278944201D14D1C49
:1040E0001DD0944204D14C1C18D0491CC1600271EF
:1040F0000846491C12D0C0F59672009301930FA197
:104100006846029300F078F90E49084802F006FD6F
:104110006B4635221C21054802F032FC3EBDC360CF
:1041200002713EBD98000020BF4D0108A40A002086
:10413000444F4E45000000005F01002025303364ED
:1041400020000000A66F01083EB51E48C168B1F509
:10415000167F0CDB1C491D4802F0E0FC03B0352241
:10416000BDE830401AA30021184802F009BC0279CA
:10417000002382F00104184A1278944201D14D1CA8
:104180001DD0944204D14C1C18D0491CC16002714E
:104190000846491C12D0C0F51672009301930FA176
:1041A0006846029300F028F90E49084802F0B6FC70
:1041B0006B4635221C21054802F0E2FB3EBDC36080
:1041C00002713EBD98000020BF4D0108A40A0020E6
:1041D000444F4E45000000005F010020253033644D
:1041E00020000000A66F010870B52A4C4FF47A75C4
:1041F000A07858B901F070FF60702846FCF70EFAFD
:104200002846FCF70BFA01F0C5FEE0700120A07013
:10421000FCF760FB06462049204802F07FFC6078EE
:104220000B280FD2DFE800F00E060816181A0E0E43
:104230000E0E1C001AA300E01CA30A220521174839
:1042400002F09EFBA068301AB0FBF5F105FB1100EF
:1042500040B10AE019A3F0E71CA3EEE720A3ECE7C6
:1042600023A3EAE701F096FEE070E078022805D18A
:1042700024A319220521094802F082FBE0780128D5
:1042800007D1BDE87040192222A30521034802F09E
:1042900077BB70BD980000203C260108A40A0020CE
:1042A0004572726F723A30312C4150004572726F14
:1042B000723A30322C525354000000004572726F33
:1042C000723A30332C436F64650000004572726FA0
:1042D000723A30342C5765625369746500000000EF
:1042E0004572726F723A30352C4563686F0000007A
:1042F000496E6974205375636365737366756C6C7E
:10430000790000004572726F723A61736B74696D67
:104310006500000041736B54696D652053756363DC
:1043200065737366756C6C790000000070B5204988
:10433000204802F0F3FB204C204E214D206818B19C
:10434000306808B1286828B91EA30A220521194837
:1043500002F016FB21A12448226800F04DF8224803
:1043600022A114302A6800F047F81F4820A1283005
:10437000326800F041F81C4B142205210D4802F070
:10438000FFFA194B142228332D210A4802F0F8FABB
:10439000154B142214335521064802F0F1FABDE8FA
:1043A00070402822134B2D21024802F0E9BA000088
:1043B0003C260108A40A0020100000201400002060
:1043C00018000020506C7A2053796E6368726F6E0B
:1043D000697A65204669727374000000546F6461E5
:1043E00079206973202573006C0B00202573000071
:1043F00025732000A80000200FB4084B10B504A9B5
:1044000002AA039800F09EF8044602A9002000F0DA
:104410003DFA204610BC5DF814FB00008D480008F2
:104420000907090E002804DB00F1E02080F80014E1
:10443000704700F00F0000F1E02080F8141D704775
:10444000004870477001002010EE100AC0F3C751F9
:104450007F391729A8BF7047DFED140A002970EED5
:10446000200A0CDAF5EEC00AF1EE10FA1ADD002887
:10447000C8BF4FF07E50B8BF4FF0004012E00C4A6A
:1044800022FA01F2104208BF7047F5EEC00AF1EEC1
:1044900010FA07DD002804DD4FF4000323FA01F1D0
:1044A0000844904300EE100A70470000CAF24971B8
:1044B000FFFF7F0010EE100AC0F3C7517F391729A4
:1044C000A8BF7047DFED140A002970EE200A0DDA4C
:1044D000F5EEC00AF1EE10FA1ADD0028A8BF0020A0
:1044E00016DAB0F1004F18BF0C4811E00C4ACA4070
:1044F000104208BF7047F5EEC00AF1EE10FA07DD72
:10450000002804DA4FF4000323FA01F10844904331
:1045100000EE100A70470000CAF24971000080BF27
:10452000FFFF7F0002E008C8121F08C1002AFAD16D
:1045300070477047002001E001C1121F002AFBD123
:10454000704700002DE9FF4F8BB0884605460026D6
:1045500006E025280BD0DDE90D1290476D1C761C76
:1045600028780028F5D10FB0304600F063B9002458
:10457000A146A2460122AE4900E0044315F8013FDE
:10458000203B02FA03F00842F7D128782A2810D0FD
:104590006FF02F022878A0F13001092915D809EB16
:1045A000890102EB410144F0020400EB01096D1C9A
:1045B000F0E758F8041B5FEA010903D544F40054FE
:1045C000C9F1000944F002046D1C28782E2817D187
:1045D00015F8010F44F004042A280ED06FF02F02C2
:1045E0002878A0F1300109290AD80AEB8A0102EBE8
:1045F000410100EB010A6D1CF2E758F804AB6D1C99
:1046000028786C280FD006DC4C2817D068280DD0ED
:104610006A2814D104E0742810D07A280FD10DE054
:1046200044F400140AE044F4801401E044F440141B
:104630006978814202D104F580146D1C6D1C2878C4
:10464000692865D006DC00288DD0632827D064282F
:1046500006D15DE06E2808D073282AD0752877D05F
:10466000DDE90D129047761CE0E0C4F30250022809
:1046700009D003280DD0D8F8001004280DD00E6002
:1046800008F10408D2E0D8F80010F217C1E900627E
:10469000F6E7D8F800100E80F2E70E70F0E718F891
:1046A000041B8DF8001000208DF80100EB4601205E
:1046B00003E058F804BB4FF0FF3061074FF00007EC
:1046C00001D40AE07F1C57450DDA8742FADB1BF85C
:1046D00007100029F6D106E07F1C8742FCDB1BF89F
:1046E00007100029F8D1DDE90D23A9EB0700814669
:1046F000214600F0B4F83044C61904E0DDE90D129B
:104700001BF8010B90477F1EF8D22146484688E0EF
:1047100058F8040BC4F302514FF00A0B032900D1DF
:1047200000B2042900D140B2002802DA40422D2113
:1047300002E0210505D52B218DF82410012104E08C
:1047400006E0E10710D02021F6E708AF089113E05A
:1047500058F8040BC4F302514FF00A0B032900D19F
:1047600080B2042900D1C0B20021EEE75946FBF720
:10477000D2FD303107F8011D0028F7D1ADEB07005D
:1047800000F1200B600702D524F4803401E04FF0E3
:10479000010ADA4502DDAAEB0B0000E000208246A8
:1047A00000EB0B0108980144A9EB01000A90E0031B
:1047B00006D4DDE90D2321460A9800F050F806449E
:1047C0004FF0000908E009A911F80900DDE90D1210
:1047D000904709F10109761C08998945F3DBE0034C
:1047E0000CD5DDE90D2321460A9800F038F806447F
:1047F00004E0DDE90D1230209047761CBAF100018B
:10480000AAF1010AF5DC05E0DDE90D1217F8010B4C
:104810009047761CBBF10001ABF1010BF4DC0A9868
:104820002146DDE90D2300F008F806446D1C97E6EB
:104830000928010030BCBDE8C08F2DE9F0410446D5
:1048400000251E461746880404D405E0394620207A
:10485000B0476D1C641EF9D52846BDE8F0812DE9EE
:10486000F041044600251E469046C80301D5302776
:1048700000E02027880404D505E041463846B047CB
:104880006D1C641EF9D52846BDE8F0810A68531CEA
:104890000B6010707047000090ED001AB4EE401AE3
:1048A000F1EE10FA14D071EE401AF0EEE11A11EEAA
:1048B000901AB1F17E5F09DD30EE410ADFED051A95
:1048C00071EEE01AC0EE210A30EE810A80ED000A96
:1048D000704700000000C84270B500281FD0036C6C
:1048E0000022114618251C7D09E000BF05EB81065A
:1048F0009E59864201D10A4603E0491CC9B28C4246
:10490000F4D80749CB693BB99FED060A81ED000A4F
:104910009FED050A81ED040A0A76C861012070BD89
:10492000380B00200000004300002043002801D085
:104930000149086170470000580B00202DE9F0473D
:1049400000212DED028B88B0B74802F0DFF8DFF8C8
:10495000DC9200224C4699ED010A80231146BCEE00
:10496000C00A10EE100A80B20090AF4801F0E5FDD9
:104970000121AD4802F0CAF894ED010A3825DFEDB7
:10498000AC0A30EE600AF3EE020A30EE600ABDEEC9
:10499000C00A10EE100A44B214F1140F7ED4A01C09
:1049A0004FF0030A82B20D2329469F48CDF800A09C
:1049B00001F0C3FD00219C4802F0A8F8E01C82B27F
:1049C00009233A21984801F099FE0121964802F006
:1049D0009DF8261DB2B205233921934801F0E0FF6E
:1049E000B2B205234321904801F0DAFF0026A01956
:1049F000083047B2032E04D205EB060000F1010097
:104A000001E005F1040040B204D2A5EB060101F17A
:104A10000A0101E005F107014FFA81F881B2BAB24B
:104A20004FF00203804801F069FEBAB21FFA88F124
:104A300002237D4801F062FE761CF6B2052ED6D325
:104A40000026A0190D3047B2A81BC01C81B2BAB213
:104A50000223754801F052FEA919BAB20223724826
:104A6000083101F04BFE761CF6B2032EE9D304F1B7
:104A70001006B2B20323691C6B4801F091FFB2B279
:104A8000032305F10B01684801F08AFFF01C82B294
:104A90000D2329466448CDF800A000E027E001F08E
:104AA0004CFD0021604802F031F8301D82B209232C
:104AB000A91C5D4801F022FE01215B4802F026F8A6
:104AC00018225C4901A8FBF7B1FB00260DF1040791
:104AD00007EB46004078204482B217F816004119CF
:104AE000514801F0C0FE761CF6B20B2EF0D399EDC2
:104AF000010AF0EE080A4E4630EE200AB5EEC00A72
:104B0000F1EE10FA16DB002400EE104AD6ED010A91
:104B10008023B8EE400A002130EE800ABCEEC00AC5
:104B200010EE100A82B2404801F0E8FD641CE4B2C5
:104B3000032CE9D90025F1EE048AB7EE008A00BF04
:104B400096ED010A6F1CDFF8F08030EE680ABDEECA
:104B5000C00A10EE100A04B211E0E00704D1A2B2BC
:104B6000B9B2314801F07FFE04EA0800012804D1FF
:104B7000A2B2A9B22C4801F076FE641C24B296EDD4
:104B8000010A70EE480A00EE104AB8EEC00AF4EED0
:104B9000C00AF1EE10FAE0DAAD1C2DB2802DCFDDA7
:104BA0002248DFED260A96ED020A001D00F05EFDA8
:104BB0003078012110B3FAEE000A01282ED0022825
:104BC00017D196ED010A96ED021AB4EE410AF1EE04
:104BD00010FA0ED110EE100AB0F1414F09D1184869
:104BE0009FED180A017000203070C6ED010A86EDB5
:104BF000020A08B0BDEC028BBDE8F08796ED010A11
:104C0000D6ED020AB4EE600AF1EE10FAF1D110EE20
:104C1000100A0D4A9042ECD13170EAE7C6ED020A63
:104C200002203070E5E70000A40A002030000020D8
:104C300000000042E87A0008010000800000BC4249
:104C40004400002000009042000090422DE9F04313
:104C50006D4C2DED048B83B0207E00287DD094ED2B
:104C6000020AD4ED030AB4EE600AF1EE10FA01D0A4
:104C7000206A02E0FBF72EFE2062E169401AA1885B
:104C800088420CD3BBEE0E0A84ED030AD4ED020A6F
:104C9000F4EE400AF1EE10FA01D100202076D4EDB6
:104CA000040A9FED5A8AB6EE009AF1EE008AB0EE41
:104CB000480A574800EEC90AD4ED020ABDEEC00A00
:104CC00010EE105A30EEE80ABDEEC00A10EE107A6F
:104CD000B2EE0E0A30EE800ABDEEC00A10EE106A87
:104CE00001F09CF801214B4801F010FF4FF004083F
:104CF0004FF01309CDE9009894ED040ABDEEC00A07
:104D000010EE100A83B2F81C82B2E81C81B241484E
:104D100001F0C0FD00213F4801F0F8FE1521CDE96A
:104D2000001894ED040ABAB230EE280A00EE498A5F
:104D3000FDEEC00A10EE900ABDEEC80A83B210EE76
:104D4000100A81B2334801F0A5FD0121314801F07C
:104D5000DDFE0321CDE9009100E04FE094ED040A6F
:104D6000BAB2A9B2BDEEC00A10EE100A83B2294849
:104D700001F090FD0221274801F0C8FE94ED040ADD
:104D800030EE680ABDEEC00A10EE100A83B2B01E03
:104D900082B2A81C81B21F4801F0B0FC681CF61E4C
:104DA00081B2B2B21B4801F05EFDA81E81B2B2B260
:104DB000184801F058FD0021164801F0A7FE1548DB
:104DC000D4ED020A236890F97E0003B000EE100AC9
:104DD000BDEC048BAD1DB8EEC00AA9B2BDE8F0432E
:104DE00030EE800AF0EE000A30EE600ABDEEC00A36
:104DF00010EE100A82B2074801F0C2BD03B0BDEC4C
:104E0000048BBDE8F08300005000002000008042C9
:104E10003C260108A40A002010B500F007F800F0B5
:104E2000F7F8BDE8104000F083BB0000F0B50121A9
:104E30002DED028B87B0704801F068FE42230122FD
:104E400000216D4801F05AFC0022432311466A48B4
:104E500001F054FC1822694901A8FBF7E7F9002486
:104E60000DF1040707EB840617F8245007E0F278E9
:104E70002946614801F0F7FCB0782844C5B2707843
:104E8000A842F4D2641CE4B2062CEBD340230022E7
:104E90007B21594801F084FD402300227F215648A0
:104EA00001F07EFD564CE069006C007D00EE100ABA
:104EB000F8EE400A9FED531A81EE200AFFF7C4FA7C
:104EC000FCEEC00A504D032310EE900A85ED030A54
:104ED0007C2180B20090207E00EE900AB8EE601A2D
:104EE000F1EE040A41EE000ABCEEE00A10EE100AF0
:104EF00082B2414801F021FB00213F4801F006FE4B
:104F0000207E032300EE100A7C21B8EE401A95EDB6
:104F1000030AF0EE400A41EE000ABCEEE00A10EE91
:104F2000100A82B2344801F0E9FBD5ED030A374993
:104F300010EE900A88422DDB207EB0EE008A01EE52
:104F4000100A30EEC80AB8EE411A01EE200AFFF747
:104F5000B1FABCEEC00A03237C2110EE100A82B223
:104F6000254801F0CBFB207ED5ED030A01EE100AA7
:104F700030EE880AB8EE411A01EE200AFFF79AFADD
:104F8000BCEEC00A03237C2110EE100A82B21A483C
:104F900001F0B4FB0121184801F0B8FD04240323FB
:104FA00000227C211448009401F0C7FA03233C221C
:104FB0007C211148009401F0C0FA00210E4801F054
:104FC000A5FD032302227C210B4801F097FB01225F
:104FD0007D21094801F047FC03233D227C2106483E
:104FE00001F08CFB3E227D21034801F03CFC07B020
:104FF000BDEC028BF0BD0000A40A0020007B00087D
:10500000380B002000005842300000200000104102
:105010002DE9F04F87B00027DFF8E0B24FF0180A13
:10502000DFF8DC82DFF8DC925BE0B749B1EE000A22
:105030000AEB8706D1ED000A905930EE800AD1EDD7
:10504000020A0121BDEEC00A10EE103A90ED030AEB
:1050500098F97E001DB200EBD07030EE200A4010AF
:1050600000EE900AF8EEE00A30EE600ABDEEC00AEB
:1050700010EE100A04B2A24801F048FDD9F81C0055
:10508000006C80590078A8B3012853D002287DD045
:1050900098F97E0000EBD07004EB6000011F3C2902
:1050A00006D282B2A81C81B298A3954801F068FC90
:1050B000974800F0B3FE98F97E0000EBD07004EB47
:1050C0006000011F3C290AD2D9F81C1082B20A35AF
:1050D000096C8B4889594B68A9B201F059FC7F1CB7
:1050E000FFB2D9F81C100A6C117DB9429DD807B0E7
:1050F00000F012B9FFE7A01C01900328D8DDA01E24
:105100004028D5DA82B2A81C81B2009004237C48E2
:1051100001F0F4FA0098A2B281B20523784801F0B8
:10512000EDFA0198032382B2009881B2744801F02D
:10513000E5FABDE7E01D0328BADD601C01904028B8
:10514000B6DA0F2000900198032382B2281D81B2A5
:1051500002906B4801F013FA0298A2B281B20323C5
:10516000674801F01DFC07200090A01E82B20B23AF
:105170006521634801F043FAD9F81C00006C80599E
:1051800000F061FE406C0078012800E018E04FF06C
:105190000300A2B2034600900AD06721584801F0EC
:1051A000CCF901986C2182B2554801F05CFB7FE795
:1051B0006B21534801F0C1F90198682182B2F3E7ED
:1051C000601D0328B5DDA01E01904028B1DA601EE5
:1051D00082B20090E81C81B20523494801F0E0FB4F
:1051E0000098052382B2A81D81B2454801F0D8FB82
:1051F000032000900198032382B2A81C81B240488A
:1052000001F09BF903200090A01C82B2681D81B2BE
:1052100003233B4801F091F9002002900390049091
:10522000D9F81C00006C805900F006FE406C39A1D2
:10523000B0F9002002A8FFF7DFF802A9304801F01A
:105240000BFCC0F16E0000B20590D9F81C00006C98
:10525000805900F0F1FD90F84A00E8B3FBF73AFB03
:1052600006909BF80100B8B10121254801F04EFCE1
:1052700002A9234801F0F6FB001D83B298F97E00D5
:105280000121801E80B2CDE90001201F82B2059865
:1052900081B21B4801F0FEFA0221194801F036FCE8
:1052A00098F97E0002AB00EBD07004EB600082B294
:1052B0000598801C81B2124801F062FB0699DBF868
:1052C00010205846891AB1F57A7FFFF432AF417841
:1052D00081F00101417000E003E00699CBF8101065
:1052E000E6E698F97E0002AB00EBD07004EB6000BC
:1052F00082B20598801C81B2D7E600003000002001
:10530000A40A0020380B0020580B00202D000000BC
:105310003C2601082564000030BCBDE8C08F0000B9
:105320002DE9F0417E4C2DED048B82B0207E0028CB
:105330007ED094ED020AD4ED030AB4EE600AF1EED9
:1053400010FA01D0206A02E0FBF7C4FA2062E1699A
:10535000401AA18888420CD3BBEE0E0A84ED030AE2
:10536000D4ED020AF4EE400AF1EE10FA01D1002069
:105370002076D4ED040A9FED6B8AF6EE008A6A4827
:10538000B0EE480A00EEE80AF3EE040ABDEEC00AE9
:1053900010EE105A94ED020A30EE200ABDEEC00A5B
:1053A00010EE106A00F03AFD0121604801F0AEFBFA
:1053B00004214FF01408CDE9008194ED040AB1EE08
:1053C000009A032730EE090ABDEEC00A10EE100A5B
:1053D00094ED020A83B2BDEEC00A10EE100A07FA7D
:1053E00080F082B2681C81B2504801F053FA00216B
:1053F0004E4801F08BFB05211820CDE90001D4EDCA
:10540000040AB2EE000A94ED021A30EE800ABDEEF4
:10541000C00A10EE100AB0EE000A31EE401A83B254
:10542000BDEEC11A11EE100A30EE891A82B200E008
:1054300070E0F0EE480A41EE680A30EEC00ABDEEB8
:10544000C00A10EE100A81B2384801F023FA012197
:10545000364801F05BFBCDE9008794ED040A30EE9D
:10546000090ABDEEC00A10EE100A94ED020A83B2DA
:10547000BDEEC00A10EE100A82B2A81E81B22B48FF
:1054800001F008FA0221294801F040FB94ED040ADA
:10549000A9B2BDEEC00A10EE100A83B2B01E82B2ED
:1054A000224801F02BF9681EF61E81B2B2B21F48E5
:1054B00001F0D9F994ED040AB2B200EE288ABDEEEB
:1054C000C80A10EE100A81B2184801F0CCF9002188
:1054D000164801F01BFB1548D4ED020A236890F929
:1054E0007E0002B000EE100ABDEC048BED1CB8EE9D
:1054F000C00AA9B2BDE8F04130EE800AF7EE000A1A
:1055000030EE200ABDEEC00A10EE100A82B2074843
:1055100001F03EBA02B0BDEC048BBDE8F0810000A2
:1055200074000020000080423C260108A40A0020EC
:105530002DE9F0414548F1EE000A2DED028B82B0D5
:1055400090ED000A424C30EE200AD0ED020ABDEE8A
:10555000C00A10EE101A94ED000A0FB230EE200AC5
:105560000221BDEEC00A10EE100A06B2394801F061
:10557000CDFA94ED040AB2B2B9B2BCEEC00A10EE94
:10558000100A80B2009094ED020ABCEEC00A10EE40
:10559000100A83B22F4800F0D0FF01212D4801F0FE
:1055A000B5FA00EE107AD4ED020AA046B8EEC00AB1
:1055B000F1EE0C8A30EE800ABDEEC00A10EE100A41
:1055C00005B22BE03446B7EE008A12E0E00705D1C1
:1055D000681C81B2A2B21F4801F045F91E48204064
:1055E000012804D1A2B2A9B21A4801F03CF9641C06
:1055F00024B200EE106AD8ED040AB8EEC00A30EE0C
:10560000800A70EE480A00EE104AB8EEC00AF4EEC6
:10561000C00AF1EE10FAD9DAAD1C2DB200EE107A04
:10562000D8ED020AB8EEC00A30EE800A70EE280A01
:1056300000EE105AB8EEC00AF4EEC00AF1EE10FA0D
:10564000C0DA02B0BDEC028BBDE8F081580B00203F
:10565000380B0020A40A00200100008010B5FFF7DD
:10566000F5FABDE81040FFF75BBE000090ED001AB0
:10567000B4EE401AF1EE10FA14D071EE401AF0EECA
:10568000E11A11EE901AB1F17E5F09DD30EE410AA8
:10569000DFED051A71EEE01AC0EE210A30EE810A44
:1056A00080ED000A704700000000C84210B5084CA9
:1056B000606858B9442000F0C9FE44216060FAF7E0
:1056C000CEFD60680021017002A14160606810BDDC
:1056D00044000020726F6F740000000000487047A3
:1056E000380B002010B500F00BF8FFF7DFFFFFF7D5
:1056F000F3F8FFF7F3FFBDE81040FFF717B900001C
:1057000010B500242DED028B9FED108A09E000BF3B
:10571000FFF7CCFF00EB8400641C8069E4B280EDED
:10572000038AFFF7C3FF007DA042F1D8084C002098
:105730002076FFF7BBFF80699FED060AE06184EDEC
:10574000000A84ED040ABDEC028B10BD00000000CD
:10575000380B00200000804270B50546442000F060
:1057600075FE04464421FAF77AFD00202070204699
:10577000656070BD2DE9F04780461D4616460F4610
:105780005020DDF8209000F061FE04465021FAF729
:1057900066FD02202070C4F80480676484F84B60C2
:1057A000A4F84E50A4F84C902046BDE8F0872DE9AF
:1057B000F0410746984615460E46582000F046FE32
:1057C00004465821FAF74BFD03202070C4F850809E
:1057D0006760C4E912652046BDE8F08170B50D46EA
:1057E000040006D02DB1207D0A2802D2207A0A2892
:1057F00001D3002070BD401C287200202875174876
:1058000000F00CFB207D70B104EB8000F2EE0E0A7C
:10581000406990ED040A30EE200A00BF85ED040ACD
:10582000207A48B110E00E4890F97E00C01C00EECE
:10583000100AB8EEC00AF1E7207D28B92846FFF724
:105840004BF80848FFF772F8207D04EB8001401CFC
:1058500020758D6101202C6470BD00003C2601087C
:10586000A40A0020380B002070B50D460646FBF751
:1058700031F80F4C26602062A58000202076FBF7CF
:1058800029F8E061B3EE040A84ED030A01202076D2
:10589000084800F0C3FA0848216801F0E3F808302E
:1058A00000EE100AB8EE400A84ED050A70BD000053
:1058B000740000203C260108A40A00201E4A00B5FE
:1058C0001069F2EE0E0AD2ED031A90ED010A30EEE5
:1058D000201A31EE211A11EE101AB1F1854F07DDB1
:1058E0009FED161A31EE400A30EE600A82ED030A8F
:1058F00090ED010AD2ED030A70EE200AF5EEC00A1F
:10590000F1EE10FA05D2F1EE000A30EEC00A82ED97
:10591000030A9FED0B2A92ED010A0748F0EE420AB6
:10592000FEF7BAFF044892ED030AF0EE420A08308F
:105930005DF804EBFEF7B0BF580B0020000080427A
:105940000000C042094A00B592ED030ADFED080AE3
:1059500002F10800FEF7A0FF044892ED050ADFED12
:10596000050A10305DF804EBFEF796BF50000020EA
:105970000000BC420000BE4210B500220B4B1824B0
:105980009FED0B2A0CE000BF04EB8201F0EE420A0F
:10599000405890ED040A0C30FEF77EFF521CD2B244
:1059A000D869006C017D9142EED810BD380B002003
:1059B0000000A842094A00B592ED030ADFED080A8B
:1059C00002F10800FEF768FF044892ED050ADFEDDA
:1059D000050A10305DF804EBFEF75EBF740000208E
:1059E0000000BC420000C04210B5244800F016FA86
:1059F0002449234C91F97E10E06900EE101AD0ED95
:105A0000040AB8EEC00A30EEC00AF7EE000A30EE23
:105A1000200A84ED010A017801292CD002292AD01C
:105A20004168184801F01EF80C3000EE100AB8EE7C
:105A3000400A00BF84ED030A9FED132AB2EE0E0A5E
:105A400084ED050A94ED010AF0EE420A0C48FEF7D7
:105A500023FF0B4894ED030AF0EE420A0830FEF7EC
:105A60001BFF94ED050A0648BDE81040DFED070A6C
:105A70001030FEF711BF9FED060ADBE73C26010858
:105A8000380B0020A40A00200000B8420000BA42EF
:105A90000000DC4200B5FFF755FF5DF804EBFFF7AF
:105AA00089BF00002DE9F0412F4C0025E069027A02
:105AB0000178012A02D0022903D012E003290ED175
:105AC00013E000F0B9F990F84A0050B1E06900F035
:105AD000B3F980F84A50B0F84810406C0180BDE836
